:100000000C942A000C94BD060C9447000C944700F5
:100010000C9447000C9447000C9447000C94470044
:100020000C9447000C9447000C9447000C94470034
:100030000C9447000C9447000C9447000C94470024
:100040000C9447000C9447000C9447000C94470014
:100050000C94470011241FBECFE5D8E0DEBFCDBF12
:1000600010E0A0E6B0E0E6E5FFE002C005900D92EA
:10007000A03FB107D9F721E0A0EFB0E001C01D9289
:10008000A531B207E1F70E9445070C94A9070C942B
:10009000000086B1806886B987B1806487B987B16E
:1000A0008F7787B986B18D7F86B986B1816086B931
:1000B00086B1846086B90895CF93C82F40E0682F39
:1000C00080E00E94D70487B1807ECF71C82BC7B96A
:1000D000CF91089586B1806486B9349BFECF84B1F8
:1000E000282F30E0FB013183208345B180E0942F3D
:1000F000822B932B9183808308958230B9F128F469
:10010000882351F08130E9F00895833009F443C029
:10011000843009F455C0089540E060E081E00E9419
:10012000A70540E066E083E00E94A70540E062E0AA
:1001300083E00E94A70568EF70E080E00E946A00FB
:10014000089541E060E081E00E94A70540E066E09C
:1001500083E00E94A70540E062E083E00E94A705DB
:1001600066EF70E080E00E946A00089540E060E081
:1001700081E00E94A70541E066E083E00E94A705B8
:1001800040E062E083E00E94A70564EF70E080E059
:100190000E946A00089541E060E081E00E94A705A6
:1001A00041E066E083E00E94A70540E062E083E072
:1001B0000E94A70562EF70E080E00E946A00089547
:1001C00040E060E081E00E94A70540E066E083E057
:1001D0000E94A70541E062E083E00E94A70560EF6E
:1001E00070E080E00E946A0008951092FA004DC00D
:1001F000823019F128F4882341F0813091F040C019
:10020000833039F1843089F13BC080E00E947D0069
:1002100061E071E08091F8009091F9000E947A0706
:100220002FC081E00E947D006BE071E08091F600BC
:100230009091F7000E947A0723C082E00E947D001F
:100240006CEF70E08091F4009091F5000E947A07C5
:1002500017C083E00E947D0060E171E08091F200B0
:100260009091F3000E947A070BC084E00E947D0009
:1002700066E071E08091F0009091F1000E947A07B1
:100280008091FA008F5F8093FA008091FA008530A8
:1002900008F4AECF0895E1E0F1E0108211821282FD
:1002A00013821482ECEFF0E010821182128213822A
:1002B0001482EBE0F1E01082118212821382148228
:1002C000E0E1F1E010821182128213821482E6E0F2
:1002D000F1E01082118212821382148208958091BB
:1002E000F8009091F9009C01255033402D313105E3
:1002F000A0F54091F6005091F700403163E05607B9
:1003000060F14133534048F54091F4005091F500BD
:10031000403163E0560708F148335340F0F4409110
:10032000F2005091F3004A3063E05607B0F04033DA
:10033000534098F44091F0005091F1004D3363E048
:10034000560758F04036534040F481E00E94DD06E5
:100350008AEE90E00E9438070895AC014051534066
:1003600046315105A0F54091F6005091F7004A3012
:1003700063E0560760F14932534048F54091F4007C
:100380005091F500403863E0560708F14639534074
:10039000F0F44091F2005091F300453563E05607C8
:1003A000B0F04637534098F44091F0005091F1007E
:1003B000403463E0560758F04136534040F481E042
:1003C0000E94DD068FED90E00E9438070895AC0191
:1003D0004651534046315105A0F54091F6005091E9
:1003E000F700403163E0560760F14D32534048F565
:1003F0004091F4005091F5004A3763E0560708F148
:100400004B395340F0F44091F2005091F3004F35D6
:1004100063E05607B0F04038534098F44091F00044
:100420005091F100453863E0560758F0403B534087
:1004300040F481E00E94DD0681ED90E00E943807E3
:100440000895AC01535046315105A0F54091F60096
:100450005091F700453863E0560760F1403A534049
:1004600048F54091F4005091F500403863E056079C
:1004700008F146395340F0F44091F2005091F300F6
:10048000483663E05607B0F04638534098F4409140
:10049000F0005091F100403963E0560758F0473AB8
:1004A000534040F481E00E94DD068EEC90E00E9413
:1004B00038070895AC014C56534045315105A0F51D
:1004C0004091F6005091F700473063E0560760F125
:1004D0004132534048F54091F4005091F5004531C8
:1004E00063E0560708F140335340F0F44091F200C6
:1004F0005091F300411563E05607B0F04631534088
:1005000098F44091F0005091F1004E3263E05607AC
:1005100058F04134534040F481E00E94DD0686ECFF
:1005200090E00E9438070895AC0149575340473185
:100530005105A0F54091F6005091F700493163E074
:10054000560760F14033534048F54091F400509114
:10055000F5004C3763E0560708F14A395340F0F490
:100560004091F2005091F300493563E05607B0F036
:100570004A37534098F44091F0005091F1004034D4
:1005800063E0560758F04836534040F481E00E943B
:10059000DD0685EB90E00E9438070895AC014F57C7
:1005A00053404E315105A0F54091F6005091F700AF
:1005B000493163E0560760F14D32534048F54091B0
:1005C000F4005091F500403863E0560708F14A39CD
:1005D0005340F0F44091F2005091F3004C3563E049
:1005E0005607B0F04A37534098F44091F0005091CC
:1005F000F100453863E0560758F0413A534040F463
:1006000081E00E94DD0681EB90E00E9438070895AA
:10061000AC014A5653404C325105A0F54091F600CA
:100620005091F7004D3863E0560760F14A3A534065
:1006300048F54091F4005091F5004A3763E05607C1
:1006400008F146395340F0F44091F2005091F30024
:10065000403763E05607B0F04638534098F4409175
:10066000F0005091F1004F3863E0560758F0403BDE
:10067000534040F481E00E94DD068EEA90E00E9443
:1006800038070895AC014A5053404C315105A0F54C
:100690004091F6005091F700411563E0560760F174
:1006A0004032534048F54091F4005091F5004D32EE
:1006B00063E0560708F146345340F0F44091F200ED
:1006C0005091F300403563E05607B0F04B3653408D
:1006D00098F44091F0005091F100403463E05607E7
:1006E00058F04136534040F481E00E94DD068EE927
:1006F00090E00E9438070895AC01455153404C31B9
:100700005105A0F54091F6005091F700403963E0A3
:10071000560760F1483A534048F54091F400509133
:10072000F5004C3763E0560708F14C395340F0F4BC
:100730004091F2005091F300483663E05607B0F064
:100740004038534098F44091F0005091F100453901
:1007500063E0560758F0403B534040F481E00E946C
:10076000DD0685E990E00E9438070895AC014559FF
:1007700053404B315105A0F54091F6005091F700E0
:10078000453863E0560760F14F39534048F54091D2
:10079000F4005091F5004F3763E0560708F14139F6
:1007A0005340F0F44091F2005091F300473663E07B
:1007B0005607B0F04D37534098F44091F0005091F7
:1007C000F100473863E0560758F0423A534040F48E
:1007D00081E00E94DD0685E890E00E9438070895D8
:1007E000AC01405753404D315105A0F54091F60002
:1007F0005091F700403163E0560760F14C325340AE
:1008000048F54091F4005091F500403163E05607FF
:1008100008F14D325340F0F44091F2005091F30052
:10082000403563E05607B0F04137534098F44091AB
:10083000F0005091F1004D3763E0560758F0413910
:10084000534040F481E00E94DD068FE790E00E9473
:1008500038070895AC014858534049315105A0F577
:100860004091F6005091F700453663E0560760F17D
:100870004138534048F54091F4005091F50040381C
:1008800063E0560708F14F395340F0F44091F2000D
:100890005091F300403663E05607B0F042385340C1
:1008A00098F44091F0005091F100453963E056070B
:1008B00058F0493A534040F481E00E94DD0686E753
:1008C00090E00E94380708958C5593404597A0F515
:1008D0008091F6009091F700803843E0940760F132
:1008E0008A3A934048F58091F4009091F500853064
:1008F00043E0940708F18A329340F0F48091F200CB
:100900009091F300863143E09407B0F08632934033
:1009100098F48091F0009091F100803443E09407C6
:1009200058F08136934040F481E00E94DD068EE667
:1009300090E00E943807089528323105A0F5809193
:10094000F6009091F7008E3723E0920760F181392D
:10095000934048F58091F4009091F500853763E06D
:10096000960708F180399340F0F48091F20090915D
:10097000F300853543E09407B0F08137934098F455
:100980008091F0009091F100803423E0920758F0BC
:100990008D35934040F481E00E94DD0680E690E0D2
:1009A0000E943807089581E00E94DD060895813095
:1009B00031F138F0823009F440C0833009F45AC074
:1009C00076C041110DC02AB381E090E002C0880FCB
:1009D000991F6A95E2F7809582238ABB81E008958A
:1009E000413009F066C02AB381E090E002C0880F70
:1009F000991F6A95E2F7822B8ABB81E00895411125
:100A00000DC027B381E090E002C0880F991F6A955E
:100A1000E2F78095822387BB81E00895413009F099
:100A20004AC027B381E090E002C0880F991F6A9501
:100A3000E2F7822B87BB81E0089541110DC024B3FA
:100A400081E090E002C0880F991F6A95E2F78095D7
:100A5000822384BB81E00895413079F524B381E09D
:100A600090E002C0880F991F6A95E2F7822B84BB41
:100A700081E0089541110DC021B381E090E002C0F2
:100A8000880F991F6A95E2F78095822381BB81E0E8
:100A900008954130A1F421B381E090E002C0880FB5
:100AA000991F6A95E2F7822B81BB81E0089580E06F
:100AB000089580E0089580E0089580E0089580E042
:100AC0000895813079F028F08230A9F08330E1F088
:100AD00024C08AB3962F909589236423682B6ABB20
:100AE00081E01CC087B3962F909589236423682BDF
:100AF00067BB81E013C084B3962F9095892364234C
:100B0000682B64BB81E00AC081B3962F909589233E
:100B10006423682B61BB81E001C080E00000089580
:100B2000813049F028F0823049F0833051F00CC018
:100B30006BBB81E00AC068BB81E007C065BB81E098
:100B400004C062BB81E001C080E0000008958130F4
:100B500031F138F0823009F440C0833009F45AC0D2
:100B600076C041110DC02BB381E090E002C0880F28
:100B7000991F6A95E2F7809582238BBB81E070C054
:100B8000413009F066C02BB381E090E002C0880FCD
:100B9000991F6A95E2F7822B8BBB81E061C04111FE
:100BA0000DC028B381E090E002C0880F991F6A95BC
:100BB000E2F78095822388BB81E052C0413009F082
:100BC0004AC028B381E090E002C0880F991F6A955F
:100BD000E2F7822B88BB81E043C041110DC025B3F1
:100BE00081E090E002C0880F991F6A95E2F7809536
:100BF000822385BB81E034C0413079F525B381E0A3
:100C000090E002C0880F991F6A95E2F7822B85BB9E
:100C100081E026C041110DC022B381E090E002C006
:100C2000880F991F6A95E2F78095822382BB81E045
:100C300017C04130A1F422B381E090E002C0880FD8
:100C4000991F6A95E2F7822B82BB81E009C080E0A0
:100C500007C080E005C080E003C080E001C080E004
:100C600000000895813031F138F0823009F440C03D
:100C7000833009F45AC076C041110DC02BB381E016
:100C800090E002C0880F991F6A95E2F78095822351
:100C90008BBB81E070C0413009F066C02BB381E0AE
:100CA00090E002C0880F991F6A95E2F7822B8BBBF8
:100CB00081E061C041110DC028B381E090E002C025
:100CC000880F991F6A95E2F78095822388BB81E09F
:100CD00052C0413009F04AC028B381E090E002C020
:100CE000880F991F6A95E2F7822B88BB81E043C089
:100CF00041110DC025B381E090E002C0880F991F1B
:100D00006A95E2F78095822385BB81E034C041304B
:100D100079F525B381E090E002C0880F991F6A95AC
:100D2000E2F7822B85BB81E026C041110DC022B3C2
:100D300081E090E002C0880F991F6A95E2F78095E4
:100D4000822382BB81E017C04130A1F422B381E04D
:100D500090E002C0880F991F6A95E2F7822B82BB50
:100D600081E009C080E007C080E005C080E003C0EA
:100D700080E001C080E0000008951F920F920FB63E
:100D80000F9211248F9381E08093FB008F910F903D
:100D90000FBE0F901F90189541E063E081E00E9424
:100DA000A7058FE39CE90197F1F700C0000040E040
:100DB00063E081E00E94A7050895CF93C82F40E02B
:100DC00061E081E00E94A7056BB38C2F807F6F707C
:100DD000682B80E00E9490050E94CC0620E1C29F13
:100DE000C00111246BB36F70682B80E00E949005E6
:100DF0000E94CC06CF9108954EE06EE081E00E9403
:100E0000610540EF60EF80E00E94610583E30E948E
:100E1000DD0682E30E94DD0688E20E94DD068CE0AA
:100E20000E94DD0686E00E94DD0681E00E94DD066C
:100E30000895CF93C82F41E061E081E00E94A705AB
:100E40006BB38C2F807F6F70682B80E00E949005C1
:100E50000E94CC0620E1C29FC00111246BB36F70C9
:100E6000682B80E00E9490050E94CC06CF910895E7
:100E7000CF93DF93EC0103C021960E94190788816C
:100E80008111FACFDF91CF91089541E060E081E0D8
:100E90000E94D70441E066E083E00E94D70441E06D
:100EA00062E083E00E94D70441E060E081E00E94BC
:100EB000320641E066E083E00E94320641E062E0F3
:100EC00083E00E9432060E9449000E94FC0680E0F6
:100ED0000E945C000E944B010E94F5000E946F017D
:100EE0002FEF87EA91E6215080409040E1F700C063
:100EF0000000F2CFDC01FB01148290E026C0492FF4
:100F000050E09A01220F331F220F331FFD0102C050
:100F1000F695E7952A95E2F79F01EF70FF273A973C
:100F200050F0E3E0F0E0E41BF50BE60FF71F2F7045
:100F3000295C208309C0E3E0F0E0E41BF50BE60F39
:100F4000F71F2F70205D20839F5F9430C0F281E0F7
:060F50000895F894FFCFA4
:100F56004920616D206E6F7420737572650050654F
:100F66007266656374005175657374696F6E0050BF
:100F760065616365004920616D2057617463686926
:100F86006E67207500476F6F64204A6F62004920C4
:100F96007265616C6C79206C696B652075004F4BCE
:100FA60000596F750054686973206973205465721F
:100FB6007269626C6500476F6F64627965004E6F97
:100FC6000053656520596F75204C61746572004940
:100FD600204C6F766520596F750048656C6C6F0004
:00000001FF
