:100000000C942A000C9447000C9447000C94470071
:100010000C9447000C9447000C9447000C94470044
:100020000C9447000C9447000C9447000C94470034
:100030000C9447000C9447000C9447000C94470024
:100040000C941A030C9447000C9447000C9447003E
:100050000C94470011241FBECFE5D8E0DEBFCDBF12
:1000600010E0A0E6B0E0E0E3F9E002C005900D92F8
:10007000A036B107D9F720E0A0E6B0E001C01D929C
:10008000A438B207E1F70E94EB020C9496040C949A
:10009000000086B1806886B987B1806487B987B16E
:1000A0008F7787B986B18D7F86B986B1816086B931
:1000B00086B1846086B90895CF93C82F40E0682F39
:1000C00080E00E947D0087B1807ECF71C82BC7B9C8
:1000D000CF91089586B1806486B9349BFECF84B1F8
:1000E000282F30E0FB013183208345B180E0942F3D
:1000F000822B932B918380830895813031F138F0E6
:10010000823009F440C0833009F45AC076C04111EE
:100110000DC02AB381E090E002C0880F991F6A9554
:10012000E2F7809582238ABB81E00895413009F08F
:1001300066C02AB381E090E002C0880F991F6A95DB
:10014000E2F7822B8ABB81E0089541110DC027B3ED
:1001500081E090E002C0880F991F6A95E2F78095D0
:10016000822387BB81E00895413009F04AC027B35C
:1001700081E090E002C0880F991F6A95E2F7822B18
:1001800087BB81E0089541110DC024B381E090E068
:1001900002C0880F991F6A95E2F78095822384BB7D
:1001A00081E00895413079F524B381E090E002C008
:1001B000880F991F6A95E2F7822B84BB81E008952E
:1001C00041110DC021B381E090E002C0880F991F5A
:1001D0006A95E2F78095822381BB81E008954130E2
:1001E000A1F421B381E090E002C0880F991F6A95C5
:1001F000E2F7822B81BB81E0089580E0089580E0E2
:10020000089580E0089580E0089580E008958130A9
:1002100079F028F08230A9F08330E1F024C08AB36D
:10022000962F909589236423682B6ABB81E01CC0BC
:1002300087B3962F909589236423682B67BB81E051
:1002400013C084B3962F909589236423682B64BBD5
:1002500081E00AC081B3962F909589236423682B8F
:1002600061BB81E001C080E000000895813049F069
:1002700028F0823049F0833051F00CC06BBB81E034
:100280000AC068BB81E007C065BB81E004C062BBF7
:1002900081E001C080E000000895813031F138F044
:1002A000823009F440C0833009F45AC076C041114D
:1002B0000DC02BB381E090E002C0880F991F6A95B2
:1002C000E2F7809582238BBB81E070C0413009F05A
:1002D00066C02BB381E090E002C0880F991F6A9539
:1002E000E2F7822B8BBB81E061C041110DC028B3C6
:1002F00081E090E002C0880F991F6A95E2F780952F
:10030000822388BB81E052C0413009F04AC028B343
:1003100081E090E002C0880F991F6A95E2F7822B76
:1003200088BB81E043C041110DC025B381E090E05E
:1003300002C0880F991F6A95E2F78095822385BBDA
:1003400081E034C0413079F525B381E090E002C00E
:10035000880F991F6A95E2F7822B85BB81E026C042
:1003600041110DC022B381E090E002C0880F991FB7
:100370006A95E2F78095822382BB81E017C0413005
:10038000A1F422B381E090E002C0880F991F6A9522
:10039000E2F7822B82BB81E009C080E007C080E0E9
:1003A00005C080E003C080E001C080E00000089547
:1003B000813031F138F0823009F440C0833009F4E3
:1003C0005AC076C041110DC02BB381E090E002C04D
:1003D000880F991F6A95E2F7809582238BBB81E095
:1003E00070C0413009F066C02BB381E090E002C0DC
:1003F000880F991F6A95E2F7822B8BBB81E061C061
:1004000041110DC028B381E090E002C0880F991F10
:100410006A95E2F78095822388BB81E052C0413023
:1004200009F04AC028B381E090E002C0880F991F0C
:100430006A95E2F7822B88BB81E043C041110DC071
:1004400025B381E090E002C0880F991F6A95E2F71A
:100450008095822385BB81E034C0413079F525B396
:1004600081E090E002C0880F991F6A95E2F7822B25
:1004700085BB81E026C041110DC022B381E090E030
:1004800002C0880F991F6A95E2F78095822382BB8C
:1004900081E017C04130A1F422B381E090E002C0B6
:1004A000880F991F6A95E2F7822B82BB81E009C011
:1004B00080E007C080E005C080E003C080E001C0AC
:1004C00080E00000089541E063E081E00E944D017A
:1004D0008FE39CE90197F1F700C0000040E063E082
:1004E00081E00E944D010895CF93C82F40E061E064
:1004F00081E00E944D016BB38C2F807F6F70682B61
:1005000080E00E9436010E94630220E1C29FC00188
:1005100011246BB36F70682B80E00E9436010E943B
:100520006302CF9108954EE06EE081E00E940701E2
:1005300040EF60EF80E00E94070183E30E947402B5
:1005400082E30E94740288E20E9474028CE00E949E
:10055000740286E00E94740281E00E947402089591
:10056000CF93C82F41E061E081E00E944D016BB361
:100570008C2F807F6F70682B80E00E9436010E9474
:10058000630220E1C29FC00111246BB36F70682B1E
:1005900080E00E9436010E946302CF910895CF93BC
:1005A000DF93EC0103C021960E94B0028881811183
:1005B000FACFDF91CF910895813019F0823021F088
:1005C00006C08FE7860F04C08FEB860F01C080E85E
:1005D0000E94740208950E94490080E00E945C001D
:1005E0000E949302789486B1886086B986B180644F
:1005F00086B941E060E081E00E947D0041E066E074
:1006000083E00E947D0041E062E083E00E947D0083
:1006100041E060E081E00E94D80141E066E083E0D3
:100620000E94D80141E062E083E00E94D8010E946C
:100630004304FFCF1F920F920FB60F9211242F93F6
:100640003F934F935F936F937F938F939F93AF935A
:10065000BF93EF93FF930E94C1030E9417042FEFF3
:1006600087EA91E6215080409040E1F700C0000009
:10067000FF91EF91BF91AF919F918F917F916F917A
:100680005F914F913F912F910F900FBE0F901F9050
:1006900018958230B9F128F4882351F08130E9F0BF
:1006A0000895833009F443C0843009F455C0089597
:1006B00040E060E081E00E944D0140E066E083E0C0
:1006C0000E944D0140E062E083E00E944D0168E637
:1006D00070E080E00E946A00089541E060E081E0FF
:1006E0000E944D0140E066E083E00E944D0140E041
:1006F00062E083E00E944D0166E670E080E00E94C7
:100700006A00089540E060E081E00E944D0141E010
:1007100066E083E00E944D0140E062E083E00E94D9
:100720004D0164E670E080E00E946A00089541E0B7
:1007300060E081E00E944D0141E066E083E00E94BC
:100740004D0140E062E083E00E944D0162E670E00E
:1007500080E00E946A00089540E060E081E00E942D
:100760004D0140E066E083E00E944D0141E062E01F
:1007700083E00E944D0160E670E080E00E946A0024
:10078000089510926A004DC0823019F128F4882330
:1007900041F0813091F040C0833039F1843089F1EB
:1007A0003BC080E00E94490360E770E080916800F0
:1007B000909169000E9467042FC081E00E94490364
:1007C0006AE770E080916600909167000E9467047C
:1007D00023C082E00E9449036BE670E080916400D0
:1007E000909165000E94670417C083E00E9449034E
:1007F0006FE770E080916200909163000E9467044F
:100800000BC084E00E94490365E770E080916000BE
:10081000909161000E94670480916A008F5F8093CD
:100820006A0080916A00853008F4AECF089581E0B7
:100830000E94740261E081E00E94DC0280E790E0A7
:100840000E94CF0266E081E00E94DC028AE790E02D
:100850000E94CF026BE081E00E94DC028BE690E018
:100860000E94CF0261E082E00E94DC028FE790E00C
:100870000E94CF0266E082E00E94DC0285E790E001
:100880000E94CF020895E0E7F0E010821182128208
:1008900013821482EBE6F0E010821182128213823E
:1008A0001482EAE7F0E0108211821282138214822D
:1008B000EFE7F0E010821182128213821482E5E7E2
:1008C000F0E0108211821282138214820895DC01FA
:1008D000FB01148290E026C0492F50E09A01220FBC
:1008E000331F220F331FFD0102C0F695E7952A95AD
:1008F000E2F79F01EF70FF273A9750F0E3E0F0E056
:10090000E41BF50BE60FF71F2F70295C208309C04D
:10091000E3E0F0E0E41BF50BE60FF71F2F70205D1E
:1009200020839F5F9430C0F281E00895F894FFCF58
:00000001FF
